:100000000C942A000C9424040C9450040C947C044A
:100010000C940F010C94E6000C9447000C944700DC
:100020000C9447000C9447000C94BD000C94940071
:100030000C9447000C9447000C9447000C94470024
:100040000C9447000C9447000C9447000C94470014
:100050000C94470011241FBECFE5D8E0DEBFCDBF12
:1000600010E0A0E6B0E0E2E1F0E102C005900D9200
:10007000A63BB107D9F710E0A6EBB0E001C01D9296
:10008000AE3EB107E1F70E944F060C9407080C94AE
:10009000000083B78F7B83BF83B7886083BF8AE705
:1000A0008CBF89B7826089BF83B7887F83BF83B7DE
:1000B000836083BF089589B7826089BF089589B737
:1000C0008D7F89BF089582BF08958CBF089582B740
:1000D000089585B58F7B85BD85B5886085BD8AEF20
:1000E00083BD89B7806889BF85B5887F85BD85B5A3
:1000F000836085BD089589B7806889BF089589B7F1
:100100008F7789BF089584BD089583BD089584B510
:100110000895009741F0E62FF0E0EE0FFF1FEA543C
:10012000FF4F9183808308951F920F920FB60F9215
:1001300011242F933F934F935F936F937F938F93EC
:100140009F93AF93BF93EF93FF93E091CC00F09117
:10015000CD00309709F00995FF91EF91BF91AF91D4
:100160009F918F917F916F915F914F913F912F91CF
:100170000F900FBE0F901F9018951F920F920FB601
:100180000F9211242F933F934F935F936F937F931D
:100190008F939F93AF93BF93EF93FF93E091CA0028
:1001A000F091CB00309709F00995FF91EF91BF9145
:1001B000AF919F918F917F916F915F914F913F91FF
:1001C0002F910F900FBE0F901F9018951F920F92B6
:1001D0000FB60F9211242F933F934F935F936F931A
:1001E0007F938F939F93AF93BF93EF93FF93E09190
:1001F000C000F091C100309709F00995FF91EF918F
:10020000BF91AF919F918F917F916F915F914F912E
:100210003F912F910F900FBE0F901F9018951F9236
:100220000F920FB60F9211242F933F934F935F932A
:100230006F937F938F939F93AF93BF93EF93FF93AE
:10024000E091BE00F091BF00309709F00995FF9151
:10025000EF91BF91AF919F918F917F916F915F913E
:100260004F913F912F910F900FBE0F901F901895B7
:10027000413069F0442351F4813009F44CC081309D
:10028000D8F0823009F43BC0833069F108958130A1
:1002900009F458C08130E0F0823009F448C083305E
:1002A000A9F721B381E090E002C0880F991F6A95F9
:1002B000E2F7282B21BB08952AB381E090E002C029
:1002C000880F991F6A95E2F7809582238ABB08956B
:1002D0002AB381E090E002C0880F991F6A95E2F787
:1002E000282B2ABB089521B381E090E002C0880F3B
:1002F000991F6A95E2F78095822381BB089524B304
:1003000081E090E002C0880F991F6A95E2F780951E
:10031000822384BB089527B381E090E002C0880F58
:10032000991F6A95E2F78095822387BB089524B3CD
:1003300081E090E002C0880F991F6A95E2F7282BB0
:1003400024BB089527B381E090E002C0880F991F75
:100350006A95E2F7282B27BB0895413069F04423C2
:1003600051F4813009F44CC08130D8F0823009F466
:100370003BC0833069F10895813009F458C0813061
:10038000E0F0823009F448C08330A9F722B381E05D
:1003900090E002C0880F991F6A95E2F7282B22BBD4
:1003A00008952BB381E090E002C0880F991F6A95F1
:1003B000E2F7809582238BBB08952BB381E090E018
:1003C00002C0880F991F6A95E2F7282B2BBB08956E
:1003D00022B381E090E002C0880F991F6A95E2F78E
:1003E0008095822382BB089525B381E090E002C00E
:1003F000880F991F6A95E2F78095822385BB08953F
:1004000028B381E090E002C0880F991F6A95E2F757
:100410008095822388BB089525B381E090E002C0D7
:10042000880F991F6A95E2F7282B25BB089528B3FA
:1004300081E090E002C0880F991F6A95E2F7282BAF
:1004400028BB0895813061F1813090F429B381E0B7
:1004500090E0062E02C0880F991F0A94E2F730E060
:100460008223932302C0959587956A95E2F70895B4
:100470008230C1F0833011F080E0089520B381E034
:1004800090E0062E02C0880F991F0A94E2F730E030
:100490008223932302C0959587956A95E2F7089584
:1004A00026B3D5CF23B3D3CF8130E9F0813028F004
:1004B000823021F1833061F008952BB381E090E028
:1004C00002C0880F991F6A95E2F728272BBB089571
:1004D00022B381E090E002C0880F991F6A95E2F78D
:1004E000282722BB089528B381E090E002C0880F3E
:1004F000991F6A95E2F7282728BB089525B381E064
:1005000090E002C0880F991F6A95E2F7282725BB63
:1005100008956F3F59F0662341F48130C9F081306E
:1005200078F0823099F0833079F008958130A1F02D
:10053000813040F0823071F08330B9F761BB0895AB
:100540001ABA08956ABB089511BA089514BA0895A5
:1005500017BA089564BB089567BB0895813059F0B8
:10056000813028F0823049F0833019F008956BBB58
:10057000089562BB089568BB089565BB08958130F6
:1005800061F0813030F0823051F0833021F080E032
:1005900008958BB3089582B3089588B3089585B301
:1005A00008956F708130A9F0813028F08230C1F059
:1005B000833041F008958BB3807F8BBB8BB3682B66
:1005C0006BBB089582B3807F82BB82B3682B62BB12
:1005D000089588B3807F88BB88B3682B68BB089573
:1005E00085B3807F85BB85B3682B65BB0895629515
:1005F000607F8130A9F0813028F08230C1F08330F3
:1006000041F008958BB38F708BBB8BB3682B6BBBA2
:10061000089582B38F7082BB82B3682B62BB08954A
:1006200088B38F7088BB88B3682B68BB089585B387
:100630008F7085BB85B3682B65BB08958130A9F0A9
:10064000813028F08230C1F0833041F008958AB3C0
:10065000807F8ABB8AB3862B8ABB089581B3807F53
:1006600081BB81B3862B81BB089587B3807F87BB15
:1006700087B3862B87BB089584B3807F84BB84B304
:10068000862B84BB08958130A9F0813028F0823018
:10069000C1F0833041F008958AB38F708ABB8AB36A
:1006A000862B8ABB089581B38F7081BB81B3862B63
:1006B00081BB089587B38F7087BB87B3862B87BBB9
:1006C000089584B38F7084BB84B3862B84BB089554
:1006D0008FB780688FBF08958FB78F778FBF0895CA
:1006E00085B7816085BF85B7826085BF8BB78F7BFB
:1006F0008BBF8AB780648ABF089585B7846085BF41
:1007000085B7886085BF8BB78F778BBF8AB78068C6
:100710008ABF089584B7806484BF8BB78F7D8BBFF9
:100720008AB780628ABF08958130A9F0813028F0AD
:100730008230C1F0833041F0089585B78E7F85BF48
:1007400085B78D7F85BF089585B7816085BF85B7E3
:10075000826085BF089585B7816085BF85B78D7F2D
:1007600085BF089585B78E7F85BF85B7826085BFB9
:1007700008958130A9F0813028F08230C1F08330B3
:1007800041F0089585B78B7F85BF85B7877F85BF8B
:10079000089585B7846085BF85B7886085BF089553
:1007A00085B7846085BF85B7877F85BF089585B786
:1007B0008B7F85BF85B7886085BF0895823039F00B
:1007C000833009F0089584B7806484BF089584B7A6
:1007D0008F7B84BF08958BB780648BBF08958BB7E0
:1007E0008F7B8BBF08958BB780688BBF08958BB7C5
:1007F0008F778BBF08958BB780628BBF08958BB7BF
:100800008F7D8BBF08958AB780648ABF08958AB7A9
:1008100080688ABF08958AB780628ABF089500976A
:1008200021F09093D7008093D6000895009721F08F
:100830009093D9008093D8000895009721F0909369
:10084000DB008093DA0008951F920F920FB60F928B
:1008500011242F933F934F935F936F937F938F93C5
:100860009F93AF93BF93EF93FF93E091D600F091E6
:10087000D700309721F009958AB780648ABFFF912D
:10088000EF91BF91AF919F918F917F916F915F9108
:100890004F913F912F910F900FBE0F901F90189581
:1008A0001F920F920FB60F9211242F933F934F93E5
:1008B0005F936F937F938F939F93AF93BF93EF93C8
:1008C000FF93E091D800F091D900309721F009957D
:1008D0008AB780688ABFFF91EF91BF91AF919F91D6
:1008E0008F917F916F915F914F913F912F910F90D9
:1008F0000FBE0F901F9018951F920F920FB60F9278
:1009000011242F933F934F935F936F937F938F9314
:100910009F93AF93BF93EF93FF93E091DA00F09131
:10092000DB00309721F009958AB780628ABFFF917A
:10093000EF91BF91AF919F918F917F916F915F9157
:100940004F913F912F910F900FBE0F901F901895D0
:10095000DF93CF9300D000D000D0CDB7DEB7342FD7
:100960004983452F5A83562F6B837C838D839E83C7
:10097000442369F43130E9F0332391F026960FB621
:10098000F894DEBF0FBECDBFCF91DF910895413007
:10099000A9F79923C1F4862F622F0E94D102EECFCE
:1009A000E22FF0E0E555FF4F862F60810E94AE02F6
:1009B000E5CFE22FF0E0E555FF4F60816095852F90
:1009C0000E94AE02DBCF9130C9F6862F622F0E94C3
:1009D000F702D4CF0F931F93DF93CF9300D000D0B3
:1009E00000D0CDB7DEB749835A836B837C838D8378
:1009F0009E83172F082F4130B9F0442351F4872FDD
:100A0000602F41E00E943801812F602F41E00E9459
:100A1000AD0126960FB6F894DEBF0FBECDBFCF91C5
:100A2000DF911F910F910895872F602F41E00E9461
:100A30003801812F602F40E00E94AD01EACF0F9373
:100A40001F93DF93CF9300D000D000D0CDB7DEB797
:100A500049835A836B837C838D839E83172F082F52
:100A60004130B9F0442351F4872F602F41E00E94B8
:100A70003801812F602F40E00E94AD0126960FB60D
:100A8000F894DEBF0FBECDBFCF91DF911F910F91C4
:100A90000895872F602F41E00E943801812F602F39
:100AA00041E00E94AD01EACFDF93CF9300D000D0A8
:100AB00000D0CDB7DEB749835A836B837C838D83A7
:100AC0009E83552391F0513049F026960FB6F89445
:100AD000DEBF0FBECDBFCF91DF910895992351F4B2
:100AE000862F6FE00E941E03F0CF862F6FEF0E94CB
:100AF0008902EBCF913049F7862F60EF0E944303C4
:100B0000E4CFDF93CF9300D00F92CDB7DEB7962F0F
:100B10006983672F7A838B83892F0E9422020F902B
:100B20000F900F90CF91DF910895DF93CF9300D076
:100B30000F92CDB7DEB7962F6983672F7A838B83A9
:100B4000892F0E9454020F900F900F90CF91DF9148
:100B50000895DF93CF9300D00F92CDB7DEB7262F45
:100B600069837A838B83672F813061F0882321F436
:100B7000822F41E00E94AD010F900F900F90CF9116
:100B8000DF910895822F40E00E94AD010F900F90F9
:100B90000F90CF91DF910895DF93CF9300D00F9204
:100BA000CDB7DEB7262F69837A838B83672F813099
:100BB00061F0882321F4822F40E00E94AD010F9064
:100BC0000F900F90CF91DF910895822F41E00E9406
:100BD000AD010F900F900F90CF91DF910895DF93AB
:100BE000CF9300D00F92CDB7DEB7962F6983672FD2
:100BF0007A838B83892F41E00E9438010F900F90F8
:100C00000F90CF91DF9108958091E2008F5F8093E4
:100C1000E2008A3071F18091E4008A30C9F080915D
:100C2000E6008A3009F008951092E6008091E7000E
:100C30008F5F8093E7008630B1F71092E200109248
:100C4000E3001092E4001092E5001092E70008958E
:100C50001092E4008091E5008F5F8093E50086307C
:100C6000F1F61092E5008091E6008F5F8093E60038
:100C7000D6CF1092E2008091E3008F5F8093E30073
:100C80008A3049F61092E3008091E4008F5F8093F0
:100C9000E400C1CF89B792E0892789BF089580E039
:100CA0006FEF0E94890283E061E041E00E94380119
:100CB0006091600070916100809162000E94EF0578
:100CC0006091600070916100809162000E94A905AE
:100CD00040916300509164006091650070916600DE
:100CE00080916700909168000E94540540916900CE
:100CF00050916A0060916B0070916C0080916D0062
:100D000090916E000E94540540916F0050917000C8
:100D100060917100709172008091730090917400E5
:100D20000E945405409175005091760060917700C3
:100D3000709178008091790090917A000E9454051A
:100D400040917B0050917C0060917D0070917E000D
:100D500080917F00909180000E9454054091810015
:100D60005091820060918300709184008091850091
:100D7000909186000E945405409187005091880010
:100D80006091890070918A0080918B0090918C0015
:100D90000E94540540918D0050918E0060918F000B
:100DA0007091900080919100909192000E94540562
:100DB000409193005091940060919500709196003D
:100DC00080919700909198000E945405409199005D
:100DD00050919A0060919B0070919C0080919D00C1
:100DE00090919E000E94540540919F005091A00058
:100DF0006091A1007091A2008091A3009091A40045
:100E00000E9454054091A5005091A6006091A70052
:100E10007091A8008091A9009091AA000E945405A9
:100E20000E947D030E94F3038AE496E00E94160468
:100E30000E948A030E94FB0383E397E00E941D0443
:100E400080ED97E06AE00E94890084E797E064E023
:100E50000E9489000E9449000E9469000E945F0070
:100E60000E946803FFCF09B601FC19C01092E2008E
:100E70001092E3001092E4001092E5001092E60058
:100E80001092E7001092E8001092E9001092EA0038
:100E90001092EB001092EC001092ED00089560911A
:100EA000600070916100809162000E94CC051092F8
:100EB000E1001092E0008091E2008093E8008091D0
:100EC000E3008093E9008091E4008093EA00809140
:100ED000E5008093EB008091E6008093EC00809128
:100EE000E7008093ED000895E091DE00F091DF00CF
:100EF00081E090E00E2E02C0880F991F0A94E2F75D
:100F000080958BBBEE51FF4F40917B0050917C0050
:100F100060917D0070917E0080917F0090918000B3
:100F200020810E94A804E091DE00F091DF00E851EA
:100F3000FF4F40919F005091A0006091A1007091DF
:100F4000A2008091A3009091A40020810E94A80497
:100F50008091DE009091DF0001969093DF008093F6
:100F6000DE00069791F08AEF0E9485008091DE00F6
:100F70009091DF008230910510F080FD0BC083E07E
:100F800061E040E00E94AD0108951092DF001092F0
:100F9000DE00E9CF83E061E041E00E94AD01089509
:100FA0008091DC009091DD0001969093DD008093AC
:100FB000DC002091E0003091E1002F5F3F4F309343
:100FC000E1002093E0000A97B9F0245F314021F05E
:100FD0008AE70E9465000895609160007091610049
:100FE000809162000E94A9051092E1001092E00039
:100FF0008AE70E94650008950E9404061092DD00B1
:101000001092DC002091E0003091E100DECFF894F6
:02101000FFCF10
:1010120003000100010200000000010200010000C3
:1010220001020002000001020003000001020004AC
:10103200000001020005000001020000010001029F
:10104200000101000102000201000102000301008F
:1010520001020004010001020005013F065B4F6628
:061062006D7D077F6F00A9
:00000001FF
